:0300000002008774
:10005B000202FB00000080FBE479107804B8000278
:10006B008004F709D8FCE4900001788179018002C3
:10007B00F0A3D8FCD9FA1203C812005E75D0007534
:10008B0081BF020063C008C3E49396F508087401AE
:10009B009396420808740293964208087403939649
:1000AB0045087001D3D00822E4CFC0E0E4CEC0E015
:1000BB00E4CDC0E0E4CCC0E075F020E626F608E61F
:1000CB0033F608E633F608E633F6181818EC33FC6B
:1000DB00ED33FDEE33FEEF33FFC3EC9709ED9709DC
:1000EB00EE9709EF97191919400FFFEC97FC09EDE3
:1000FB0097FD09EE97FE191906D5F0BFECF709ED40
:10010B00F709EEF709EFF7191919D0E0FCD0E0FD6C
:10011B00D0E0FED0E0FF226016080808C6C313C665
:10012B0018C613C618C613C618C613C6D5E0EA22DE
:10013B007009080808226016181818C6C333C608B9
:10014B00C633C608C633C608C633C6D5E0EA22E7AF
:10015B00F60809E7F60809E7F60809E7F622E4933B
:10016B00F608740193F608740293F608740393F679
:10017B0022D083D082CEC0E0EFC0E0C0207808E66A
:10018B0008C0E0DEFAE473C0D074072FD0D0F8D0EB
:10019B00E0F618DFFAD020D0E0FFD0E0FE22C8C096
:1001AB00E0E9C0E0A9811919E583C7F58319E58258
:1001BB00C7F582EAC0E0EBC0E0ECC0E0EDC0E0EEDA
:1001CB00C0E0EFC0E0C0D0C0F0C0207908E709C0A4
:1001DB00E0D8FAE47374072FF8D0E0F618DFFAD002
:1001EB0020D0F0D0D0D0E0FFD0E0FED0E0FDD0E0CA
:1001FB00FCD0E0FBD0E0FAD0E0F9D0E0F8D083D02F
:10020B0082D0E03279048000D083D082E6C0E0084F
:10021B00D9FAE473740812017CE9FE8A088B098C05
:10022B000A8D0B7A1A800DE4C508C509C50AF50BB2
:10023B0074F82AFAEA605885080C85090D850A0EB0
:10024B00850B0F7418780C120122E50CF87006EA76
:10025B00C3940850D274F0587011EAC39404400B45
:10026B007404780812013B74FC80C774C058701179
:10027B00EAC39402400B7402780812013B1A1A80ED
:10028B00B3E8A2E740097401780812013B80EF85BF
:10029B00080C85090D850A0E850B0FE58124F0F9F5
:1002AB00780812015AEA7808120122780C790812A0
:1002BB0000B3850C08850D09850E0A850F0B7A385E
:1002CB00800B7401780812012274F82AFA90043B0F
:1002DB007808120090500574F05A70E674075E4A65
:1002EB00F59A75990485089E85099F7F08020192EE
:1002FB00C0E074011201A9AE867586001203118E3F
:10030B00867F010201E07900E5E5A2E05038E510B7
:10031B0004F8900444E493FAE8C39A4005EAC8C38E
:10032B0098F8E51168601CA910E5E6C0E074412956
:10033B00F582E43400F583D0E0F0881043E40479CF
:10034B0001800353E4FBE5E5A2E25038A813E51264
:10035B0068602EE51304F8900443E493FAE513FC6C
:10036B0074012CF582E43400F583E0F5E6E8C39ADA
:10037B004005EAC8C398F8881343E408E9D2E1F9C9
:10038B002253E4F7227513007512007511007510D6
:10039B0000EBC394024004D2F08002C2F0A2F0E45E
:1003AB0033C433FCEA333354FC541CF87401295422
:1003BB0003484C4440F5E775E407D29C2212041025
:1003CB009004377808120169780812020F90043FE5
:1003DB007808120169AA08AB09AC0AAD0B790212B5
:1003EB00021FE58124FCF5817B017A087900120359
:1003FB0090C2947AA87B61120425D2947AA87B616F
:10040B0012042580EC438A01438B10438A40438AB4
:10041B0080C288C294C28EC28F2274031470FDEA0C
:10042B0024FF1AEB34FFFBEA4B70EF2280BA8C01EE
:0A043B000040000000C20100404034
:0000870178
:00000001FF
